:100000000C9434000C945C000C946A000C94510025
:100010000C9451000C9451000C9451000C9451001C
:100020000C9451000C9451000C9451000C9451000C
:100030000C9451000C9451000C9451000C945100FC
:100040000C9451000C9451000C9451000C945100EC
:100050000C9451000C9451000C9451000C945100DC
:100060000C9451000C94510011241FBECFEFD8E026
:10007000DEBFCDBF11E0A0E0B1E0E4EAF6E002C0EF
:1000800005900D92AA32B107D9F721E0AAE2B1E0BA
:1000900001C01D92AB32B207E1F70E94B7020C9487
:1000A00050030C9400001AB88CE08BB983E08DBB30
:1000B0008FE08093690008951F920F920FB60F9200
:1000C0001124109200014A99FECF0F900FBE0F909D
:1000D0001F9018951F920F920FB60F9211248F93B5
:1000E00081E080932A014B99FECF8F910F900FBE34
:1000F0000F901F9018951F93CF93DF93C1E0D0E02E
:1001000061C019E0CE018B7F029709F4C160809134
:100110000001882339F180912A01811119C06C2FC7
:1001200088E00E940803809100018823D9F0809123
:100130002A01811151C02FEF80E792E021508040C9
:100140009040E1F700C0000080910001882351F049
:1001500080912A01811106C0CC0FDD1F6C2F88E031
:100160000E940803115071F619E080910001882364
:1001700039F180912A01811119C06C2F88E00E9409
:100180000803809100018823D9F080912A01811110
:1001900028C02FEF80E792E0215080409040E1F7A7
:1001A00000C0000080910001882351F080912A0155
:1001B000811106C0D695C7956C2F88E00E94080370
:1001C000115099F680910001882381F080912A01D5
:1001D000882309F496CF0AC080912A018111C2CFE9
:1001E000BDCF80912A018111EBCFE6CFCE01DF9107
:1001F000CF911F910895823041F018F4813049F079
:1002000006C0803831F0803C11F482E0089583E02C
:10021000089581E00895582F28E030E090E880E0CC
:10022000452F492309F08F5F969521503109C1F779
:100230000895EF92FF920F931F93CF93DF93F82EC1
:10024000EE24EA94E40E01E010E061C0DE2DC9E086
:10025000DD2314F00160D15080910001882339F131
:1002600080912A01811119C0602F8F2D0E940803EF
:10027000809100018823D9F080912A01811151C019
:100280002FEF80E792E0215080409040E1F700C0DE
:10029000000080910001882351F080912A01811192
:1002A00006C0000F111F602F8F2D0E940803C15040
:1002B00079F6C9E080910001882339F180912A0103
:1002C000811119C0602F8F2D0E94080380910001B9
:1002D0008823D9F080912A01811128C02FEF80E76F
:1002E00092E0215080409040E1F700C000008091F2
:1002F0000001882351F080912A01811106C01695D2
:100300000795602F8F2D0E940803C15099F68091A8
:100310000001882381F080912A01882309F496CF77
:100320000AC080912A018111C2CFBDCF80912A01DC
:100330008111EBCFE6CF802FDF91CF911F910F91ED
:10034000FF90EF900895EF92FF920F931F93CF933A
:10035000DF93CDB7DEB7A0970FB6F894DEBF0FBE20
:10036000CDBF88E0E1E0F1E0DE01119601900D9251
:100370008A95E1F788E0E9E0F1E0DE011996019065
:100380000D928A95E1F788E0E1E1F1E0DE01519616
:1003900001900D928A95E1F788E0E9E1F1E0DE0154
:1003A000599601900D928A95E1F77E0129E0E20EBF
:1003B000F11C18E0F70162917F01812F0E94080370
:1003C0001150C1F7FFEF25EA8EE0F1502040804048
:1003D000E1F700C000007E0191E1E90EF11C18E098
:1003E000F70162917F01812F0E9408031150C1F72C
:1003F000FFEF25EA8EE0F15020408040E1F700C099
:100400000000FE0179967F0118E0F70162917F01FB
:10041000812F0E9408031150C1F7FFEF25EA8EE0FB
:10042000F15020408040E1F700C00000FE01B1968D
:100430007F0118E0F70162917F01812F0E9408037C
:100440001150C1F7FFEF25EA8EE0F15020408040C7
:10045000E1F700C0000003E028C0F70162917F01CE
:10046000812F0E9408031150C1F7FFEF25EA8EE0AB
:10047000F15020408040E1F700C00000FE01B1963D
:100480007F0118E0F70162917F01812F0E9408032C
:100490001150C1F7FFEF25EA8EE0F1502040804077
:1004A000E1F700C00000015029F0FE0179967F01BC
:1004B00018E0D3CF0E944503A0960FB6F894DEBF94
:1004C0000FBECDBFDF91CF911F910F91FF90EF90A5
:1004D0000895EF92FF920F931F93CF93DF93CDB7C1
:1004E000DEB728970FB6F894DEBF0FBECDBF1092CF
:1004F0002A0188E0E1E2F1E0DE01119601900D921F
:100500008A95E1F705E080912A01811121C07E01E1
:1005100029E0E20EF11C18E0F70162917F01812FC2
:100520000E9408031150C1F7FFEF24E38CE0F15063
:1005300020408040E1F700C000000E9445039FEF8B
:10054000E4E3FCE09150E040F040E1F700C000003F
:100550000150C9F628960FB6F894DEBF0FBECDBF86
:10056000DF91CF911F910F91FF90EF9008950E941E
:10057000530078940E94FD020E94230301E000933F
:10058000000110922A010E9445030E947B00C82F9F
:100590000E94FB0090912A019111F1CFD7E0102F1A
:1005A00001C0192F00930001482F6C2F8D2F0E943E
:1005B0001901D150C8238C2F0E940B01811117C043
:1005C00080912A018111DBCF0E94690280912A016A
:1005D0008823D1F3D4CF80912A018111D0CF0E94FA
:1005E000A301CDCF20912A012223D9F2C8CFDD2348
:1005F00091F3912F1111F6CFC2CF8CE284B981E52E
:100600008CBD1DBC08958EBD0DB407FEFDCF0895B1
:10061000CF93C62F95B1947095B92D9A0E9403037C
:1006200085B1807285B92D9A8C2F0E94030385B104
:10063000807285B92A9A87E893E10197F1F700C0A3
:100640000000CF91089560E089E00E94080367E010
:100650008BE00E94080361E08CE00E94080364E0E4
:100660008AE00E94080361E08FE00E9408032FE700
:100670008AE196E0215080409040E1F700C0000000
:1006800060E08FE00E9408030895CF93C0E060E02F
:100690008C2F0E940803CF5FC930C9F7CF9108950E
:0406A000F894FFCFFC
:1006A40001000000181800000000003C24243C0055
:1006B40000007E425A5A427E00FF81BDA5A5BD813D
:0A06C400FF8142241818244281002F
:00000001FF
